{
  "contractName": "Travel",
  "abi": [
    {
      "constant": true,
      "inputs": [
        {
          "name": "",
          "type": "address"
        }
      ],
      "name": "userInfo",
      "outputs": [
        {
          "name": "userName",
          "type": "string"
        }
      ],
      "payable": false,
      "stateMutability": "view",
      "type": "function"
    },
    {
      "inputs": [],
      "payable": false,
      "stateMutability": "nonpayable",
      "type": "constructor"
    },
    {
      "constant": false,
      "inputs": [
        {
          "name": "_name",
          "type": "string"
        }
      ],
      "name": "changeUserName",
      "outputs": [],
      "payable": false,
      "stateMutability": "nonpayable",
      "type": "function"
    },
    {
      "constant": true,
      "inputs": [],
      "name": "getUserName",
      "outputs": [
        {
          "name": "",
          "type": "string"
        }
      ],
      "payable": false,
      "stateMutability": "view",
      "type": "function"
    },
    {
      "constant": false,
      "inputs": [
        {
          "name": "_hotel",
          "type": "string"
        },
        {
          "name": "_roomType",
          "type": "string"
        },
        {
          "name": "_fromDate",
          "type": "string"
        },
        {
          "name": "_toDate",
          "type": "string"
        },
        {
          "name": "_OTA",
          "type": "string"
        },
        {
          "name": "_totalPrice",
          "type": "uint256"
        }
      ],
      "name": "initializeOrder",
      "outputs": [],
      "payable": false,
      "stateMutability": "nonpayable",
      "type": "function"
    },
    {
      "constant": true,
      "inputs": [
        {
          "name": "_idx",
          "type": "uint256"
        }
      ],
      "name": "getUserOrdersInfo",
      "outputs": [
        {
          "name": "",
          "type": "uint256"
        },
        {
          "name": "",
          "type": "string"
        },
        {
          "name": "",
          "type": "string"
        }
      ],
      "payable": false,
      "stateMutability": "view",
      "type": "function"
    },
    {
      "constant": true,
      "inputs": [
        {
          "name": "_idx",
          "type": "uint256"
        }
      ],
      "name": "getUserOrdersRoom",
      "outputs": [
        {
          "name": "",
          "type": "string"
        },
        {
          "name": "",
          "type": "string"
        },
        {
          "name": "",
          "type": "string"
        },
        {
          "name": "",
          "type": "string"
        },
        {
          "name": "",
          "type": "uint256"
        }
      ],
      "payable": false,
      "stateMutability": "view",
      "type": "function"
    },
    {
      "constant": true,
      "inputs": [],
      "name": "getUserOrdersCount",
      "outputs": [
        {
          "name": "",
          "type": "uint256"
        }
      ],
      "payable": false,
      "stateMutability": "view",
      "type": "function"
    }
  ],
  "bytecode": "0x60806040523480156200001157600080fd5b506200001c620004cb565b60a0604051908101604052806040805190810160405280600c81526020017fe994a6e6b19fe4b98be6989f000000000000000000000000000000000000000081525081526020016040805190810160405280600981526020017fe6a087e58786e997b4000000000000000000000000000000000000000000000081525081526020016040805190810160405280600981526020017f323031382d31312d33000000000000000000000000000000000000000000000081525081526020016040805190810160405280600981526020017f323031382d31312d35000000000000000000000000000000000000000000000081525081526020016104b081525090506000803373ffffffffffffffffffffffffffffffffffffffff1673ffffffffffffffffffffffffffffffffffffffff1681526020019081526020016000206001016080604051908101604052804281526020018381526020016040805190810160405280600681526020017fe690bae7a88b000000000000000000000000000000000000000000000000000081525081526020016040805190810160405280600481526020017f696e6974000000000000000000000000000000000000000000000000000000008152508152509080600181540180825580915050906001820390600052602060002090600802016000909192909190915060008201518160000155602082015181600101600082015181600001908051906020019062000245929190620004fb565b50602082015181600101908051906020019062000264929190620004fb565b50604082015181600201908051906020019062000283929190620004fb565b506060820151816003019080519060200190620002a2929190620004fb565b506080820151816004015550506040820151816006019080519060200190620002cd929190620004fb565b506060820151816007019080519060200190620002ec929190620004fb565b505050506000803373ffffffffffffffffffffffffffffffffffffffff1673ffffffffffffffffffffffffffffffffffffffff1681526020019081526020016000206001016080604051908101604052804281526020018381526020016040805190810160405280600381526020017f647177000000000000000000000000000000000000000000000000000000000081525081526020016040805190810160405280600481526020017f696e6974000000000000000000000000000000000000000000000000000000008152508152509080600181540180825580915050906001820390600052602060002090600802016000909192909190915060008201518160000155602082015181600101600082015181600001908051906020019062000419929190620004fb565b50602082015181600101908051906020019062000438929190620004fb565b50604082015181600201908051906020019062000457929190620004fb565b50606082015181600301908051906020019062000476929190620004fb565b506080820151816004015550506040820151816006019080519060200190620004a1929190620004fb565b506060820151816007019080519060200190620004c0929190620004fb565b5050505050620005aa565b60a06040519081016040528060608152602001606081526020016060815260200160608152602001600081525090565b828054600181600116156101000203166002900490600052602060002090601f016020900481019282601f106200053e57805160ff19168380011785556200056f565b828001600101855582156200056f579182015b828111156200056e57825182559160200191906001019062000551565b5b5090506200057e919062000582565b5090565b620005a791905b80821115620005a357600081600090555060010162000589565b5090565b90565b6113fe80620005ba6000396000f300608060405260043610610083576000357c0100000000000000000000000000000000000000000000000000000000900463ffffffff1680630e2921801461008857806312958f1c146102135780631959a002146102a35780638a12452f1461035f578063a5e737bd14610550578063c0e6a6c9146105b9578063f6e94c07146106d2575b600080fd5b34801561009457600080fd5b50610211600480360381019080803590602001908201803590602001908080601f0160208091040260200160405190810160405280939291908181526020018383808284378201915050505050509192919290803590602001908201803590602001908080601f0160208091040260200160405190810160405280939291908181526020018383808284378201915050505050509192919290803590602001908201803590602001908080601f0160208091040260200160405190810160405280939291908181526020018383808284378201915050505050509192919290803590602001908201803590602001908080601f0160208091040260200160405190810160405280939291908181526020018383808284378201915050505050509192919290803590602001908201803590602001908080601f0160208091040260200160405190810160405280939291908181526020018383808284378201915050505050509192919290803590602001909291905050506106fd565b005b34801561021f57600080fd5b506102286108d7565b6040518080602001828103825283818151815260200191508051906020019080838360005b8381101561026857808201518184015260208101905061024d565b50505050905090810190601f1680156102955780820380516001836020036101000a031916815260200191505b509250505060405180910390f35b3480156102af57600080fd5b506102e4600480360381019080803573ffffffffffffffffffffffffffffffffffffffff1690602001909291905050506109b8565b6040518080602001828103825283818151815260200191508051906020019080838360005b83811015610324578082015181840152602081019050610309565b50505050905090810190601f1680156103515780820380516001836020036101000a031916815260200191505b509250505060405180910390f35b34801561036b57600080fd5b5061038a60048036038101908080359060200190929190505050610a6e565b604051808060200180602001806020018060200186815260200185810385528a818151815260200191508051906020019080838360005b838110156103dc5780820151818401526020810190506103c1565b50505050905090810190601f1680156104095780820380516001836020036101000a031916815260200191505b50858103845289818151815260200191508051906020019080838360005b83811015610442578082015181840152602081019050610427565b50505050905090810190601f16801561046f5780820380516001836020036101000a031916815260200191505b50858103835288818151815260200191508051906020019080838360005b838110156104a857808201518184015260208101905061048d565b50505050905090810190601f1680156104d55780820380516001836020036101000a031916815260200191505b50858103825287818151815260200191508051906020019080838360005b8381101561050e5780820151818401526020810190506104f3565b50505050905090810190601f16801561053b5780820380516001836020036101000a031916815260200191505b50995050505050505050505060405180910390f35b34801561055c57600080fd5b506105b7600480360381019080803590602001908201803590602001908080601f0160208091040260200160405190810160405280939291908181526020018383808284378201915050505050509192919290505050610eff565b005b3480156105c557600080fd5b506105e460048036038101908080359060200190929190505050610f58565b604051808481526020018060200180602001838103835285818151815260200191508051906020019080838360005b8381101561062e578082015181840152602081019050610613565b50505050905090810190601f16801561065b5780820380516001836020036101000a031916815260200191505b50838103825284818151815260200191508051906020019080838360005b83811015610694578082015181840152602081019050610679565b50505050905090810190601f1680156106c15780820380516001836020036101000a031916815260200191505b509550505050505060405180910390f35b3480156106de57600080fd5b506106e76111d1565b6040518082815260200191505060405180910390f35b61070561121d565b61070d61124d565b60a0604051908101604052808981526020018881526020018781526020018681526020018481525091506080604051908101604052804281526020018381526020018581526020016040805190810160405280600e81526020017f696e697469616c697a6174696f6e00000000000000000000000000000000000081525081525090506000803373ffffffffffffffffffffffffffffffffffffffff1673ffffffffffffffffffffffffffffffffffffffff168152602001908152602001600020600101819080600181540180825580915050906001820390600052602060002090600802016000909192909190915060008201518160000155602082015181600101600082015181600001908051906020019061082c92919061127d565b50602082015181600101908051906020019061084992919061127d565b50604082015181600201908051906020019061086692919061127d565b50606082015181600301908051906020019061088392919061127d565b5060808201518160040155505060408201518160060190805190602001906108ac92919061127d565b5060608201518160070190805190602001906108c992919061127d565b505050505050505050505050565b60606000803373ffffffffffffffffffffffffffffffffffffffff1673ffffffffffffffffffffffffffffffffffffffff1681526020019081526020016000206000018054600181600116156101000203166002900480601f0160208091040260200160405190810160405280929190818152602001828054600181600116156101000203166002900480156109ae5780601f10610983576101008083540402835291602001916109ae565b820191906000526020600020905b81548152906001019060200180831161099157829003601f168201915b5050505050905090565b6000602052806000526040600020600091509050806000018054600181600116156101000203166002900480601f016020809104026020016040519081016040528092919081815260200182805460018160011615610100020316600290048015610a645780601f10610a3957610100808354040283529160200191610a64565b820191906000526020600020905b815481529060010190602001808311610a4757829003601f168201915b5050505050905081565b6060806060806000806000806000806000803373ffffffffffffffffffffffffffffffffffffffff1673ffffffffffffffffffffffffffffffffffffffff1681526020019081526020016000206001018b815481101515610acb57fe5b906000526020600020906008020160010160000194506000803373ffffffffffffffffffffffffffffffffffffffff1673ffffffffffffffffffffffffffffffffffffffff1681526020019081526020016000206001018b815481101515610b2f57fe5b906000526020600020906008020160010160010193506000803373ffffffffffffffffffffffffffffffffffffffff1673ffffffffffffffffffffffffffffffffffffffff1681526020019081526020016000206001018b815481101515610b9357fe5b906000526020600020906008020160010160020192506000803373ffffffffffffffffffffffffffffffffffffffff1673ffffffffffffffffffffffffffffffffffffffff1681526020019081526020016000206001018b815481101515610bf757fe5b906000526020600020906008020160010160030191506000803373ffffffffffffffffffffffffffffffffffffffff1673ffffffffffffffffffffffffffffffffffffffff1681526020019081526020016000206001018b815481101515610c5b57fe5b90600052602060002090600802016001016004015490508484848484848054600181600116156101000203166002900480601f016020809104026020016040519081016040528092919081815260200182805460018160011615610100020316600290048015610d0c5780601f10610ce157610100808354040283529160200191610d0c565b820191906000526020600020905b815481529060010190602001808311610cef57829003601f168201915b50505050509450838054600181600116156101000203166002900480601f016020809104026020016040519081016040528092919081815260200182805460018160011615610100020316600290048015610da85780601f10610d7d57610100808354040283529160200191610da8565b820191906000526020600020905b815481529060010190602001808311610d8b57829003601f168201915b50505050509350828054600181600116156101000203166002900480601f016020809104026020016040519081016040528092919081815260200182805460018160011615610100020316600290048015610e445780601f10610e1957610100808354040283529160200191610e44565b820191906000526020600020905b815481529060010190602001808311610e2757829003601f168201915b50505050509250818054600181600116156101000203166002900480601f016020809104026020016040519081016040528092919081815260200182805460018160011615610100020316600290048015610ee05780601f10610eb557610100808354040283529160200191610ee0565b820191906000526020600020905b815481529060010190602001808311610ec357829003601f168201915b5050505050915099509950995099509950505050505091939590929450565b806000803373ffffffffffffffffffffffffffffffffffffffff1673ffffffffffffffffffffffffffffffffffffffff1681526020019081526020016000206000019080519060200190610f549291906112fd565b5050565b600060608060008060008060003373ffffffffffffffffffffffffffffffffffffffff1673ffffffffffffffffffffffffffffffffffffffff16815260200190815260200160002060010187815481101515610fb057fe5b90600052602060002090600802016000015492506000803373ffffffffffffffffffffffffffffffffffffffff1673ffffffffffffffffffffffffffffffffffffffff1681526020019081526020016000206001018781548110151561101257fe5b906000526020600020906008020160060191506000803373ffffffffffffffffffffffffffffffffffffffff1673ffffffffffffffffffffffffffffffffffffffff1681526020019081526020016000206001018781548110151561107357fe5b90600052602060002090600802016007019050828282818054600181600116156101000203166002900480601f01602080910402602001604051908101604052809291908181526020018280546001816001161561010002031660029004801561111e5780601f106110f35761010080835404028352916020019161111e565b820191906000526020600020905b81548152906001019060200180831161110157829003601f168201915b50505050509150808054600181600116156101000203166002900480601f0160208091040260200160405190810160405280929190818152602001828054600181600116156101000203166002900480156111ba5780601f1061118f576101008083540402835291602001916111ba565b820191906000526020600020905b81548152906001019060200180831161119d57829003601f168201915b505050505090509550955095505050509193909250565b60008060003373ffffffffffffffffffffffffffffffffffffffff1673ffffffffffffffffffffffffffffffffffffffff16815260200190815260200160002060010180549050905090565b60a06040519081016040528060608152602001606081526020016060815260200160608152602001600081525090565b610100604051908101604052806000815260200161126961137d565b815260200160608152602001606081525090565b828054600181600116156101000203166002900490600052602060002090601f016020900481019282601f106112be57805160ff19168380011785556112ec565b828001600101855582156112ec579182015b828111156112eb5782518255916020019190600101906112d0565b5b5090506112f991906113ad565b5090565b828054600181600116156101000203166002900490600052602060002090601f016020900481019282601f1061133e57805160ff191683800117855561136c565b8280016001018555821561136c579182015b8281111561136b578251825591602001919060010190611350565b5b50905061137991906113ad565b5090565b60a06040519081016040528060608152602001606081526020016060815260200160608152602001600081525090565b6113cf91905b808211156113cb5760008160009055506001016113b3565b5090565b905600a165627a7a723058200717c98368dfee643ced60a02f80c35ff8d66998fe842d9cc1d250dd0be963880029",
  "source": "pragma solidity ^0.4.24;\r\n\r\ncontract Travel {\r\n\r\n    // 酒店房间\r\n    struct Room {\r\n        string hotel;   // 酒店名\r\n        string roomType;    // 房间类型\r\n        string fromDate;    // 入住日期 2018-11-3\r\n        string toDate;      // 离开日期 2018-11-5\r\n        uint totalPrice;    // 总价格     \r\n    }\r\n\r\n\r\n    // 用户交易\r\n    struct UserOrder {\r\n        uint time;          // 时间戳 unix\r\n        Room room;          // 订购房间\r\n        string OTA;         // 订购的平台\r\n        string state;       // 表明订单状态：init/comfirmed\r\n    }\r\n\r\n    struct User {\r\n        string userName;\r\n        UserOrder[] orders;\r\n    }\r\n\r\n    mapping (address=>User) public userInfo;\r\n\r\n    constructor() {\r\n    \r\n        Room memory room = Room(\"锦江之星\",\"标准间\",\"2018-11-3\",\"2018-11-5\", 1200);\r\n        userInfo[msg.sender].orders.push( UserOrder(now, room, \"携程\", \"init\"));\r\n        userInfo[msg.sender].orders.push( UserOrder(now, room, \"dqw\", \"init\"));\r\n    }\r\n\r\n    // 改变用户姓名\r\n    function changeUserName(string _name) public {\r\n        userInfo[msg.sender].userName = _name;\r\n    }\r\n\r\n    // 获得用户姓名\r\n    function getUserName() public view returns (string) {\r\n        return userInfo[msg.sender].userName;\r\n    }\r\n\r\n    // 发起订购\r\n    function initializeOrder(string _hotel, string _roomType, string _fromDate, string _toDate, string _OTA, uint _totalPrice) public {\r\n        Room memory room = Room(_hotel, _roomType, _fromDate, _toDate, _totalPrice);\r\n        UserOrder memory userOrder = UserOrder(now, room, _OTA, \"initialization\");\r\n        userInfo[msg.sender].orders.push(userOrder);\r\n    }\r\n\r\n    // solidity 不能返回结构体，更不能返回结构体数组...\r\n    // 所以这里的操作有点麻烦\r\n    // 得到用户订单的附加信息 用户订单分为info(userOrder结构体里的其他信息)和room\r\n    function getUserOrdersInfo(uint _idx) public view returns (uint, string, string){\r\n       uint _time =  userInfo[msg.sender].orders[_idx].time;\r\n       string storage _OTA = userInfo[msg.sender].orders[_idx].OTA;\r\n       string storage _state = userInfo[msg.sender].orders[_idx].state;\r\n\r\n        return (_time, _OTA, _state);\r\n    }\r\n\r\n    // 得到用户订单的酒店信息\r\n    function getUserOrdersRoom(uint _idx) public view returns (string, string, string, string, uint){\r\n        string storage _hotel =  userInfo[msg.sender].orders[_idx].room.hotel;\r\n        string storage _roomType =  userInfo[msg.sender].orders[_idx].room.roomType;\r\n        string storage _fromDate =  userInfo[msg.sender].orders[_idx].room.fromDate;\r\n        string storage _toDate =  userInfo[msg.sender].orders[_idx].room.toDate;\r\n        uint _totalPrice =  userInfo[msg.sender].orders[_idx].room.totalPrice;\r\n\r\n         return (_hotel, _roomType, _fromDate, _toDate, _totalPrice);\r\n    }\r\n\r\n\r\n    // 得到用户订单数量\r\n    function getUserOrdersCount() public view returns(uint) {\r\n        return userInfo[msg.sender].orders.length;\r\n    }\r\n\r\n\r\n}",
  "sourcePath": "D:\\truffle-dapp\\travel-dapp\\contracts\\Travel.sol",
  "compiler": {
    "name": "solc",
    "version": "0.4.24+commit.e67f0147.Emscripten.clang"
  },
  "schemaVersion": "2.0.1",
  "updatedAt": "2018-11-05T08:49:02.492Z"
}