{
  "contractName": "Travel",
  "abi": [
    {
      "constant": false,
      "inputs": [
        {
          "name": "_name",
          "type": "string"
        }
      ],
      "name": "changeUserName",
      "outputs": [],
      "payable": false,
      "stateMutability": "nonpayable",
      "type": "function"
    },
    {
      "constant": true,
      "inputs": [],
      "name": "getUserName",
      "outputs": [
        {
          "name": "",
          "type": "string"
        }
      ],
      "payable": false,
      "stateMutability": "view",
      "type": "function"
    }
  ],
  "bytecode": "0x608060405234801561001057600080fd5b50610355806100206000396000f30060806040526004361061004c576000357c0100000000000000000000000000000000000000000000000000000000900463ffffffff16806312958f1c14610051578063a5e737bd146100e1575b600080fd5b34801561005d57600080fd5b5061006661014a565b6040518080602001828103825283818151815260200191508051906020019080838360005b838110156100a657808201518184015260208101905061008b565b50505050905090810190601f1680156100d35780820380516001836020036101000a031916815260200191505b509250505060405180910390f35b3480156100ed57600080fd5b50610148600480360381019080803590602001908201803590602001908080601f016020809104026020016040519081016040528093929190818152602001838380828437820191505050505050919291929050505061022b565b005b60606000803373ffffffffffffffffffffffffffffffffffffffff1673ffffffffffffffffffffffffffffffffffffffff1681526020019081526020016000206001018054600181600116156101000203166002900480601f0160208091040260200160405190810160405280929190818152602001828054600181600116156101000203166002900480156102215780601f106101f657610100808354040283529160200191610221565b820191906000526020600020905b81548152906001019060200180831161020457829003601f168201915b5050505050905090565b806000803373ffffffffffffffffffffffffffffffffffffffff1673ffffffffffffffffffffffffffffffffffffffff1681526020019081526020016000206001019080519060200190610280929190610284565b5050565b828054600181600116156101000203166002900490600052602060002090601f016020900481019282601f106102c557805160ff19168380011785556102f3565b828001600101855582156102f3579182015b828111156102f25782518255916020019190600101906102d7565b5b5090506103009190610304565b5090565b61032691905b8082111561032257600081600090555060010161030a565b5090565b905600a165627a7a72305820dbe055338a5657d62ef2e9e14ac7c8eb358216dab92810bed1bd3d9e116de5660029",
  "source": "pragma solidity ^0.4.24;\r\n\r\ncontract Travel {\r\n\r\n    // 酒店房间\r\n    struct Room {\r\n        string hotel;   // 酒店名\r\n        string roomType;    // 房间类型\r\n        string fromDate;    // 入住日期 2018-11-3\r\n        string toDate;      // 离开日期 2018-11-5\r\n        uint totalPrice;    // 总价格     \r\n    }\r\n\r\n\r\n    // 用户交易\r\n    struct UserOrder {\r\n        string userName;    // 用户名\r\n        uint time;          // 时间戳 unix\r\n        Room room;          // 订购房间\r\n        string OTA;         // 订购的平台\r\n        string state;       // 表明订单状态：init/comfirmed\r\n    }\r\n\r\n    struct User {\r\n        address userAddr;\r\n        string userName;\r\n        UserOrder[] orders;\r\n    }\r\n\r\n    mapping (address=>User) userInfo;\r\n\r\n    function changeUserName(string _name) public {\r\n        userInfo[msg.sender].userName = _name;\r\n    }\r\n\r\n    function getUserName() public view returns (string) {\r\n        return userInfo[msg.sender].userName;\r\n    }\r\n}",
  "sourcePath": "D:\\truffle-dapp\\travel-dapp\\contracts\\Travel.sol",
  "compiler": {
    "name": "solc",
    "version": "0.4.24+commit.e67f0147.Emscripten.clang"
  },
  "schemaVersion": "2.0.1",
  "updatedAt": "2018-11-04T12:45:58.569Z"
}