{
  "contractName": "Travel",
  "abi": [
    {
      "constant": true,
      "inputs": [
        {
          "name": "",
          "type": "address"
        }
      ],
      "name": "userInfo",
      "outputs": [
        {
          "name": "userName",
          "type": "string"
        }
      ],
      "payable": false,
      "stateMutability": "view",
      "type": "function"
    },
    {
      "constant": true,
      "inputs": [
        {
          "name": "",
          "type": "address"
        }
      ],
      "name": "accountType",
      "outputs": [
        {
          "name": "",
          "type": "string"
        }
      ],
      "payable": false,
      "stateMutability": "view",
      "type": "function"
    },
    {
      "inputs": [],
      "payable": false,
      "stateMutability": "nonpayable",
      "type": "constructor"
    },
    {
      "constant": false,
      "inputs": [
        {
          "name": "_name",
          "type": "string"
        }
      ],
      "name": "changeUserName",
      "outputs": [],
      "payable": false,
      "stateMutability": "nonpayable",
      "type": "function"
    },
    {
      "constant": true,
      "inputs": [],
      "name": "getUserName",
      "outputs": [
        {
          "name": "",
          "type": "string"
        }
      ],
      "payable": false,
      "stateMutability": "view",
      "type": "function"
    },
    {
      "constant": true,
      "inputs": [],
      "name": "getAccountType",
      "outputs": [
        {
          "name": "",
          "type": "string"
        }
      ],
      "payable": false,
      "stateMutability": "view",
      "type": "function"
    },
    {
      "constant": false,
      "inputs": [
        {
          "name": "_hotel",
          "type": "string"
        },
        {
          "name": "_roomType",
          "type": "string"
        },
        {
          "name": "_fromDate",
          "type": "string"
        },
        {
          "name": "_toDate",
          "type": "string"
        },
        {
          "name": "_OTA",
          "type": "string"
        },
        {
          "name": "_totalPrice",
          "type": "uint256"
        }
      ],
      "name": "initializeOrder",
      "outputs": [],
      "payable": false,
      "stateMutability": "nonpayable",
      "type": "function"
    },
    {
      "constant": true,
      "inputs": [
        {
          "name": "_idx",
          "type": "uint256"
        },
        {
          "name": "_addr",
          "type": "address"
        }
      ],
      "name": "getUserOrdersInfo",
      "outputs": [
        {
          "name": "",
          "type": "uint256"
        },
        {
          "name": "",
          "type": "string"
        },
        {
          "name": "",
          "type": "string"
        }
      ],
      "payable": false,
      "stateMutability": "view",
      "type": "function"
    },
    {
      "constant": true,
      "inputs": [
        {
          "name": "_idx",
          "type": "uint256"
        },
        {
          "name": "_addr",
          "type": "address"
        }
      ],
      "name": "getUserOrdersRoom",
      "outputs": [
        {
          "name": "",
          "type": "string"
        },
        {
          "name": "",
          "type": "string"
        },
        {
          "name": "",
          "type": "string"
        },
        {
          "name": "",
          "type": "string"
        },
        {
          "name": "",
          "type": "uint256"
        }
      ],
      "payable": false,
      "stateMutability": "view",
      "type": "function"
    },
    {
      "constant": true,
      "inputs": [],
      "name": "getUserOrdersCount",
      "outputs": [
        {
          "name": "",
          "type": "uint256"
        }
      ],
      "payable": false,
      "stateMutability": "view",
      "type": "function"
    },
    {
      "constant": true,
      "inputs": [],
      "name": "getPendingPoolCount",
      "outputs": [
        {
          "name": "",
          "type": "uint256"
        }
      ],
      "payable": false,
      "stateMutability": "view",
      "type": "function"
    },
    {
      "constant": true,
      "inputs": [
        {
          "name": "_idx",
          "type": "uint256"
        }
      ],
      "name": "getPendingPoolInfo",
      "outputs": [
        {
          "name": "",
          "type": "uint256"
        },
        {
          "name": "",
          "type": "string"
        },
        {
          "name": "",
          "type": "string"
        }
      ],
      "payable": false,
      "stateMutability": "view",
      "type": "function"
    },
    {
      "constant": true,
      "inputs": [
        {
          "name": "_idx",
          "type": "uint256"
        }
      ],
      "name": "getPendingPoolRoom",
      "outputs": [
        {
          "name": "",
          "type": "string"
        },
        {
          "name": "",
          "type": "string"
        },
        {
          "name": "",
          "type": "string"
        },
        {
          "name": "",
          "type": "string"
        },
        {
          "name": "",
          "type": "uint256"
        }
      ],
      "payable": false,
      "stateMutability": "view",
      "type": "function"
    },
    {
      "constant": false,
      "inputs": [
        {
          "name": "_idx",
          "type": "uint256"
        },
        {
          "name": "_state",
          "type": "string"
        }
      ],
      "name": "setPendingPoolRoom",
      "outputs": [],
      "payable": false,
      "stateMutability": "nonpayable",
      "type": "function"
    }
  ],
  "bytecode": "0x60806040523480156200001157600080fd5b506000806000806000807371a8a338b01c5562ce0790444e8369e3596822fb95507386ac10d1e9fe47b3f073d22adf1de57fa5e96ea99450734d0e16f644e06abfb2035a5653230ace47b696e3935073217ef0bb41750955da1fa1ab50c1e5fe0999827992507347d36a5a7a1db35310a72c04fb0256f70a00645391507379a7a47806d2dfee07b42662c4f65816461d14d290506040805190810160405280600381526020017f4f54410000000000000000000000000000000000000000000000000000000000815250600160008873ffffffffffffffffffffffffffffffffffffffff1673ffffffffffffffffffffffffffffffffffffffff16815260200190815260200160002090805190602001906200012f929190620003f3565b506040805190810160405280600581526020017f4465726279000000000000000000000000000000000000000000000000000000815250600160008773ffffffffffffffffffffffffffffffffffffffff1673ffffffffffffffffffffffffffffffffffffffff1681526020019081526020016000209080519060200190620001ba929190620003f3565b506040805190810160405280600581526020017f486f74656c000000000000000000000000000000000000000000000000000000815250600160008673ffffffffffffffffffffffffffffffffffffffff1673ffffffffffffffffffffffffffffffffffffffff168152602001908152602001600020908051906020019062000245929190620003f3565b506040805190810160405280600381526020017f4f54410000000000000000000000000000000000000000000000000000000000815250600160008573ffffffffffffffffffffffffffffffffffffffff1673ffffffffffffffffffffffffffffffffffffffff1681526020019081526020016000209080519060200190620002d0929190620003f3565b506040805190810160405280600581526020017f4465726279000000000000000000000000000000000000000000000000000000815250600160008473ffffffffffffffffffffffffffffffffffffffff1673ffffffffffffffffffffffffffffffffffffffff16815260200190815260200160002090805190602001906200035b929190620003f3565b506040805190810160405280600581526020017f486f74656c000000000000000000000000000000000000000000000000000000815250600160008373ffffffffffffffffffffffffffffffffffffffff1673ffffffffffffffffffffffffffffffffffffffff1681526020019081526020016000209080519060200190620003e6929190620003f3565b50505050505050620004a2565b828054600181600116156101000203166002900490600052602060002090601f016020900481019282601f106200043657805160ff191683800117855562000467565b8280016001018555821562000467579182015b828111156200046657825182559160200191906001019062000449565b5b5090506200047691906200047a565b5090565b6200049f91905b808211156200049b57600081600090555060010162000481565b5090565b90565b6120f680620004b26000396000f3006080604052600436106100c5576000357c0100000000000000000000000000000000000000000000000000000000900463ffffffff1680630e292180146100ca57806312958f1c1461025557806317b74555146102e55780631959a002146103fe57806351a1d618146104ba57806352d6a0a3146106ab578063a5e737bd1461073b578063aa1aa04f146107a4578063b7c74ff1146107cf578063ba99af7014610908578063d8ab9e94146109c4578063f470426414610a37578063f6e94c0714610c48575b600080fd5b3480156100d657600080fd5b50610253600480360381019080803590602001908201803590602001908080601f0160208091040260200160405190810160405280939291908181526020018383808284378201915050505050509192919290803590602001908201803590602001908080601f0160208091040260200160405190810160405280939291908181526020018383808284378201915050505050509192919290803590602001908201803590602001908080601f0160208091040260200160405190810160405280939291908181526020018383808284378201915050505050509192919290803590602001908201803590602001908080601f0160208091040260200160405190810160405280939291908181526020018383808284378201915050505050509192919290803590602001908201803590602001908080601f016020809104026020016040519081016040528093929190818152602001838380828437820191505050505050919291929080359060200190929190505050610c73565b005b34801561026157600080fd5b5061026a610f4c565b6040518080602001828103825283818151815260200191508051906020019080838360005b838110156102aa57808201518184015260208101905061028f565b50505050905090810190601f1680156102d75780820380516001836020036101000a031916815260200191505b509250505060405180910390f35b3480156102f157600080fd5b506103106004803603810190808035906020019092919050505061102d565b604051808481526020018060200180602001838103835285818151815260200191508051906020019080838360005b8381101561035a57808201518184015260208101905061033f565b50505050905090810190601f1680156103875780820380516001836020036101000a031916815260200191505b50838103825284818151815260200191508051906020019080838360005b838110156103c05780820151818401526020810190506103a5565b50505050905090810190601f1680156103ed5780820380516001836020036101000a031916815260200191505b509550505050505060405180910390f35b34801561040a57600080fd5b5061043f600480360381019080803573ffffffffffffffffffffffffffffffffffffffff1690602001909291905050506110a9565b6040518080602001828103825283818151815260200191508051906020019080838360005b8381101561047f578082015181840152602081019050610464565b50505050905090810190601f1680156104ac5780820380516001836020036101000a031916815260200191505b509250505060405180910390f35b3480156104c657600080fd5b506104e56004803603810190808035906020019092919050505061115f565b604051808060200180602001806020018060200186815260200185810385528a818151815260200191508051906020019080838360005b8381101561053757808201518184015260208101905061051c565b50505050905090810190601f1680156105645780820380516001836020036101000a031916815260200191505b50858103845289818151815260200191508051906020019080838360005b8381101561059d578082015181840152602081019050610582565b50505050905090810190601f1680156105ca5780820380516001836020036101000a031916815260200191505b50858103835288818151815260200191508051906020019080838360005b838110156106035780820151818401526020810190506105e8565b50505050905090810190601f1680156106305780820380516001836020036101000a031916815260200191505b50858103825287818151815260200191508051906020019080838360005b8381101561066957808201518184015260208101905061064e565b50505050905090810190601f1680156106965780820380516001836020036101000a031916815260200191505b50995050505050505050505060405180910390f35b3480156106b757600080fd5b506106c06111e4565b6040518080602001828103825283818151815260200191508051906020019080838360005b838110156107005780820151818401526020810190506106e5565b50505050905090810190601f16801561072d5780820380516001836020036101000a031916815260200191505b509250505060405180910390f35b34801561074757600080fd5b506107a2600480360381019080803590602001908201803590602001908080601f01602080910402602001604051908101604052809392919081815260200183838082843782019150505050505091929192905050506112c3565b005b3480156107b057600080fd5b506107b961131c565b6040518082815260200191505060405180910390f35b3480156107db57600080fd5b5061081a60048036038101908080359060200190929190803573ffffffffffffffffffffffffffffffffffffffff169060200190929190505050611329565b604051808481526020018060200180602001838103835285818151815260200191508051906020019080838360005b83811015610864578082015181840152602081019050610849565b50505050905090810190601f1680156108915780820380516001836020036101000a031916815260200191505b50838103825284818151815260200191508051906020019080838360005b838110156108ca5780820151818401526020810190506108af565b50505050905090810190601f1680156108f75780820380516001836020036101000a031916815260200191505b509550505050505060405180910390f35b34801561091457600080fd5b50610949600480360381019080803573ffffffffffffffffffffffffffffffffffffffff1690602001909291905050506115a2565b6040518080602001828103825283818151815260200191508051906020019080838360005b8381101561098957808201518184015260208101905061096e565b50505050905090810190601f1680156109b65780820380516001836020036101000a031916815260200191505b509250505060405180910390f35b3480156109d057600080fd5b50610a3560048036038101908080359060200190929190803590602001908201803590602001908080601f0160208091040260200160405190810160405280939291908181526020018383808284378201915050505050509192919290505050611652565b005b348015610a4357600080fd5b50610a8260048036038101908080359060200190929190803573ffffffffffffffffffffffffffffffffffffffff16906020019092919050505061184e565b604051808060200180602001806020018060200186815260200185810385528a818151815260200191508051906020019080838360005b83811015610ad4578082015181840152602081019050610ab9565b50505050905090810190601f168015610b015780820380516001836020036101000a031916815260200191505b50858103845289818151815260200191508051906020019080838360005b83811015610b3a578082015181840152602081019050610b1f565b50505050905090810190601f168015610b675780820380516001836020036101000a031916815260200191505b50858103835288818151815260200191508051906020019080838360005b83811015610ba0578082015181840152602081019050610b85565b50505050905090810190601f168015610bcd5780820380516001836020036101000a031916815260200191505b50858103825287818151815260200191508051906020019080838360005b83811015610c06578082015181840152602081019050610beb565b50505050905090810190601f168015610c335780820380516001836020036101000a031916815260200191505b50995050505050505050505060405180910390f35b348015610c5457600080fd5b50610c5d611ce0565b6040518082815260200191505060405180910390f35b610c7b611e65565b610c83611e95565b610c8b611ec5565b60a0604051908101604052808a81526020018981526020018881526020018781526020018581525092506080604051908101604052804281526020018481526020018681526020016040805190810160405280600e81526020017f696e697469616c697a6174696f6e00000000000000000000000000000000000081525081525091506000803373ffffffffffffffffffffffffffffffffffffffff1673ffffffffffffffffffffffffffffffffffffffff1681526020019081526020016000206001018290806001815401808255809150509060018203906000526020600020906008020160009091929091909150600082015181600001556020820151816001016000820151816000019080519060200190610daa929190611ef5565b506020820151816001019080519060200190610dc7929190611ef5565b506040820151816002019080519060200190610de4929190611ef5565b506060820151816003019080519060200190610e01929190611ef5565b506080820151816004015550506040820151816006019080519060200190610e2a929190611ef5565b506060820151816007019080519060200190610e47929190611ef5565b5050505060408051908101604052803373ffffffffffffffffffffffffffffffffffffffff16815260200160016000803373ffffffffffffffffffffffffffffffffffffffff1673ffffffffffffffffffffffffffffffffffffffff168152602001908152602001600020600101805490500381525090506002819080600181540180825580915050906001820390600052602060002090600202016000909192909190915060008201518160000160006101000a81548173ffffffffffffffffffffffffffffffffffffffff021916908373ffffffffffffffffffffffffffffffffffffffff16021790555060208201518160010155505050505050505050505050565b60606000803373ffffffffffffffffffffffffffffffffffffffff1673ffffffffffffffffffffffffffffffffffffffff1681526020019081526020016000206000018054600181600116156101000203166002900480601f0160208091040260200160405190810160405280929190818152602001828054600181600116156101000203166002900480156110235780601f10610ff857610100808354040283529160200191611023565b820191906000526020600020905b81548152906001019060200180831161100657829003601f168201915b5050505050905090565b600060608061109c60028581548110151561104457fe5b90600052602060002090600202016001015460028681548110151561106557fe5b906000526020600020906002020160000160009054906101000a900473ffffffffffffffffffffffffffffffffffffffff16611329565b9250925092509193909250565b6000602052806000526040600020600091509050806000018054600181600116156101000203166002900480601f0160208091040260200160405190810160405280929190818152602001828054600181600116156101000203166002900480156111555780601f1061112a57610100808354040283529160200191611155565b820191906000526020600020905b81548152906001019060200180831161113857829003601f168201915b5050505050905081565b60608060608060006111d160028781548110151561117957fe5b90600052602060002090600202016001015460028881548110151561119a57fe5b906000526020600020906002020160000160009054906101000a900473ffffffffffffffffffffffffffffffffffffffff1661184e565b9450945094509450945091939590929450565b6060600160003373ffffffffffffffffffffffffffffffffffffffff1673ffffffffffffffffffffffffffffffffffffffff1681526020019081526020016000208054600181600116156101000203166002900480601f0160208091040260200160405190810160405280929190818152602001828054600181600116156101000203166002900480156112b95780601f1061128e576101008083540402835291602001916112b9565b820191906000526020600020905b81548152906001019060200180831161129c57829003601f168201915b5050505050905090565b806000803373ffffffffffffffffffffffffffffffffffffffff1673ffffffffffffffffffffffffffffffffffffffff1681526020019081526020016000206000019080519060200190611318929190611f75565b5050565b6000600280549050905090565b600060608060008060008060008873ffffffffffffffffffffffffffffffffffffffff1673ffffffffffffffffffffffffffffffffffffffff1681526020019081526020016000206001018881548110151561138157fe5b90600052602060002090600802016000015492506000808873ffffffffffffffffffffffffffffffffffffffff1673ffffffffffffffffffffffffffffffffffffffff168152602001908152602001600020600101888154811015156113e357fe5b906000526020600020906008020160060191506000808873ffffffffffffffffffffffffffffffffffffffff1673ffffffffffffffffffffffffffffffffffffffff1681526020019081526020016000206001018881548110151561144457fe5b90600052602060002090600802016007019050828282818054600181600116156101000203166002900480601f0160208091040260200160405190810160405280929190818152602001828054600181600116156101000203166002900480156114ef5780601f106114c4576101008083540402835291602001916114ef565b820191906000526020600020905b8154815290600101906020018083116114d257829003601f168201915b50505050509150808054600181600116156101000203166002900480601f01602080910402602001604051908101604052809291908181526020018280546001816001161561010002031660029004801561158b5780601f106115605761010080835404028352916020019161158b565b820191906000526020600020905b81548152906001019060200180831161156e57829003601f168201915b505050505090509550955095505050509250925092565b60016020528060005260406000206000915090508054600181600116156101000203166002900480601f01602080910402602001604051908101604052809291908181526020018280546001816001161561010002031660029004801561164a5780601f1061161f5761010080835404028352916020019161164a565b820191906000526020600020905b81548152906001019060200180831161162d57829003601f168201915b505050505081565b600080606060028581548110151561166657fe5b906000526020600020906002020160010154925060028581548110151561168957fe5b906000526020600020906002020160000160009054906101000a900473ffffffffffffffffffffffffffffffffffffffff169150836000808473ffffffffffffffffffffffffffffffffffffffff1673ffffffffffffffffffffffffffffffffffffffff1681526020019081526020016000206001018481548110151561170c57fe5b90600052602060002090600802016007019080519060200190611730929190611f75565b506040805190810160405280600e81526020017f486f74656c636f6e6669726d65640000000000000000000000000000000000008152509050806040518082805190602001908083835b60208310151561179f578051825260208201915060208101905060208303925061177a565b6001836020036101000a038019825116818451168082178552505050505050905001915050604051809103902060001916846040518082805190602001908083835b60208310151561180657805182526020820191506020810190506020830392506117e1565b6001836020036101000a03801982511681845116808217855250505050505090500191505060405180910390206000191614156118475761184685611d2c565b5b5050505050565b6060806060806000806000806000806000808c73ffffffffffffffffffffffffffffffffffffffff1673ffffffffffffffffffffffffffffffffffffffff1681526020019081526020016000206001018c8154811015156118ab57fe5b906000526020600020906008020160010160000194506000808c73ffffffffffffffffffffffffffffffffffffffff1673ffffffffffffffffffffffffffffffffffffffff1681526020019081526020016000206001018c81548110151561190f57fe5b906000526020600020906008020160010160010193506000808c73ffffffffffffffffffffffffffffffffffffffff1673ffffffffffffffffffffffffffffffffffffffff1681526020019081526020016000206001018c81548110151561197357fe5b906000526020600020906008020160010160020192506000808c73ffffffffffffffffffffffffffffffffffffffff1673ffffffffffffffffffffffffffffffffffffffff1681526020019081526020016000206001018c8154811015156119d757fe5b906000526020600020906008020160010160030191506000808c73ffffffffffffffffffffffffffffffffffffffff1673ffffffffffffffffffffffffffffffffffffffff1681526020019081526020016000206001018c815481101515611a3b57fe5b90600052602060002090600802016001016004015490508484848484848054600181600116156101000203166002900480601f016020809104026020016040519081016040528092919081815260200182805460018160011615610100020316600290048015611aec5780601f10611ac157610100808354040283529160200191611aec565b820191906000526020600020905b815481529060010190602001808311611acf57829003601f168201915b50505050509450838054600181600116156101000203166002900480601f016020809104026020016040519081016040528092919081815260200182805460018160011615610100020316600290048015611b885780601f10611b5d57610100808354040283529160200191611b88565b820191906000526020600020905b815481529060010190602001808311611b6b57829003601f168201915b50505050509350828054600181600116156101000203166002900480601f016020809104026020016040519081016040528092919081815260200182805460018160011615610100020316600290048015611c245780601f10611bf957610100808354040283529160200191611c24565b820191906000526020600020905b815481529060010190602001808311611c0757829003601f168201915b50505050509250818054600181600116156101000203166002900480601f016020809104026020016040519081016040528092919081815260200182805460018160011615610100020316600290048015611cc05780601f10611c9557610100808354040283529160200191611cc0565b820191906000526020600020905b815481529060010190602001808311611ca357829003601f168201915b505050505091509950995099509950995050505050509295509295909350565b60008060003373ffffffffffffffffffffffffffffffffffffffff1673ffffffffffffffffffffffffffffffffffffffff16815260200190815260200160002060010180549050905090565b60028054905081101515611d3f57600080fd5b6002600160028054905003815481101515611d5657fe5b9060005260206000209060020201600282815481101515611d7357fe5b90600052602060002090600202016000820160009054906101000a900473ffffffffffffffffffffffffffffffffffffffff168160000160006101000a81548173ffffffffffffffffffffffffffffffffffffffff021916908373ffffffffffffffffffffffffffffffffffffffff160217905550600182015481600101559050506002600160028054905003815481101515611e0c57fe5b9060005260206000209060020201600080820160006101000a81549073ffffffffffffffffffffffffffffffffffffffff0219169055600182016000905550506002805480919060019003611e619190611ff5565b5050565b60a06040519081016040528060608152602001606081526020016060815260200160608152602001600081525090565b6101006040519081016040528060008152602001611eb1612027565b815260200160608152602001606081525090565b6040805190810160405280600073ffffffffffffffffffffffffffffffffffffffff168152602001600081525090565b828054600181600116156101000203166002900490600052602060002090601f016020900481019282601f10611f3657805160ff1916838001178555611f64565b82800160010185558215611f64579182015b82811115611f63578251825591602001919060010190611f48565b5b509050611f719190612057565b5090565b828054600181600116156101000203166002900490600052602060002090601f016020900481019282601f10611fb657805160ff1916838001178555611fe4565b82800160010185558215611fe4579182015b82811115611fe3578251825591602001919060010190611fc8565b5b509050611ff19190612057565b5090565b81548183558181111561202257600202816002028360005260206000209182019101612021919061207c565b5b505050565b60a06040519081016040528060608152602001606081526020016060815260200160608152602001600081525090565b61207991905b8082111561207557600081600090555060010161205d565b5090565b90565b6120c791905b808211156120c357600080820160006101000a81549073ffffffffffffffffffffffffffffffffffffffff0219169055600182016000905550600201612082565b5090565b905600a165627a7a723058200ad517902057177c9b983f667cd06cfedc657f29b46c79fd51e40e72373dc9b30029",
  "source": "pragma solidity ^0.4.24;\r\n\r\ncontract Travel {\r\n\r\n    // \r\n    struct Room {\r\n        string hotel;   // \r\n        string roomType;    // \r\n        string fromDate;    //  2018-11-3\r\n        string toDate;      //  2018-11-5\r\n        uint totalPrice;    //      \r\n    }\r\n\r\n    // \r\n    struct UserOrder {\r\n        uint time;          //  unix\r\n        Room room;          // \r\n        string OTA;         // \r\n        string state;       // init/comfirmed\r\n    }\r\n\r\n    struct User {\r\n        string userName;\r\n        UserOrder[] orders;\r\n    }\r\n\r\n    // \r\n    struct PendingOrder {\r\n        address userAddr;\r\n        uint idx;\r\n    }\r\n\r\n    mapping (address => User) public userInfo;\r\n\r\n    // \r\n    mapping (address => string) public accountType; \r\n\r\n    constructor() public  { \r\n        // \r\n        address a = 0x71a8A338B01C5562Ce0790444E8369e3596822fb; // OTA\r\n        address b = 0x86AC10D1E9fE47b3F073D22Adf1dE57fA5e96Ea9; // Derby\r\n        address c = 0x4d0e16F644e06AbFb2035a5653230ace47B696E3; // Hotel\r\n        address a1 = 0x217EF0Bb41750955dA1fA1Ab50c1e5fe09998279; // mac-ota\r\n        address b1 = 0x47D36A5a7A1Db35310a72C04fB0256F70A006453;    // mac-derby\r\n        address c1 = 0x79a7A47806D2dfee07b42662C4F65816461d14d2;    // mac-hotel\r\n\r\n\r\n\r\n        accountType[a] = \"OTA\";\r\n        accountType[b] = \"Derby\";\r\n        accountType[c] = \"Hotel\";\r\n\r\n        accountType[a1] = \"OTA\";\r\n        accountType[b1] = \"Derby\";\r\n        accountType[c1] = \"Hotel\";\r\n    }\r\n\r\n    // \r\n    PendingOrder[] pendingPool;\r\n    \r\n    // \r\n    function changeUserName(string _name) public {\r\n        userInfo[msg.sender].userName = _name;\r\n    }\r\n\r\n    // \r\n    function getUserName() public view returns (string) {\r\n        return userInfo[msg.sender].userName;\r\n    }\r\n\r\n    // \r\n    function getAccountType() public view returns (string) {\r\n        return accountType[msg.sender];\r\n    }\r\n\r\n    // \r\n    function initializeOrder(string _hotel, string _roomType, string _fromDate, string _toDate, string _OTA, uint _totalPrice) public {\r\n        Room memory room = Room(_hotel, _roomType, _fromDate, _toDate, _totalPrice);\r\n        UserOrder memory userOrder = UserOrder(now, room, _OTA, \"initialization\");\r\n        userInfo[msg.sender].orders.push(userOrder);\r\n\r\n        PendingOrder memory pendingOrder = PendingOrder(msg.sender,  userInfo[msg.sender].orders.length - 1);\r\n        // PendingPool;\r\n        pendingPool.push(pendingOrder);\r\n    }\r\n\r\n    // solidity ...\r\n    // \r\n    //  info(userOrder)room\r\n    function getUserOrdersInfo(uint _idx, address _addr) public view returns (uint, string, string){\r\n       uint _time =  userInfo[ _addr].orders[_idx].time;\r\n       string storage _OTA = userInfo[ _addr].orders[_idx].OTA;\r\n       string storage _state = userInfo[ _addr].orders[_idx].state;\r\n\r\n       return (_time, _OTA, _state);\r\n    }\r\n\r\n    // \r\n    function getUserOrdersRoom(uint _idx, address _addr) public view returns (string, string, string, string, uint){\r\n        string storage _hotel = userInfo[_addr].orders[_idx].room.hotel;\r\n        string storage _roomType = userInfo[_addr].orders[_idx].room.roomType;\r\n        string storage _fromDate = userInfo[_addr].orders[_idx].room.fromDate;\r\n        string storage _toDate = userInfo[_addr].orders[_idx].room.toDate;\r\n        uint _totalPrice = userInfo[_addr].orders[_idx].room.totalPrice;\r\n\r\n        return (_hotel, _roomType, _fromDate, _toDate, _totalPrice);\r\n    }\r\n\r\n\r\n    // \r\n    function getUserOrdersCount() public view returns(uint) {\r\n        return userInfo[msg.sender].orders.length;\r\n    }\r\n\r\n    // pendingPool\r\n    function getPendingPoolCount() public view returns(uint) {\r\n        return pendingPool.length;\r\n    }\r\n\r\n    // pendingPool\r\n    function getPendingPoolInfo(uint _idx)  public view returns (uint, string, string){\r\n        return getUserOrdersInfo(pendingPool[_idx].idx, pendingPool[_idx].userAddr);\r\n    }\r\n\r\n     // pendingPool\r\n    function getPendingPoolRoom(uint _idx) public view returns (string, string, string, string, uint){\r\n        return getUserOrdersRoom(pendingPool[_idx].idx, pendingPool[_idx].userAddr);\r\n    }\r\n\r\n    // \r\n    function setPendingPoolRoom(uint _idx, string _state) public {\r\n        uint _orderIndex = pendingPool[_idx].idx;\r\n        address _addr = pendingPool[_idx].userAddr;\r\n        userInfo[ _addr].orders[_orderIndex].state = _state;\r\n        // solidity\r\n        string memory s = \"Hotelconfirmed\";\r\n        if (keccak256(_state) == keccak256(s)) {\r\n            _burn(_idx);\r\n        }\r\n    } \r\n\r\n    // pendingRoom hotelgas,\r\n    // Move the last element to the deleted spot.\r\n    // Delete the last element, then correct the length.\r\n    function _burn(uint index) internal {\r\n        require(index < pendingPool.length);\r\n        pendingPool[index] = pendingPool[pendingPool.length-1];\r\n        delete pendingPool[pendingPool.length-1];\r\n        pendingPool.length--;\r\n    }\r\n    \r\n\r\n    \r\n}",
  "sourcePath": "D:\\truffle-dapp\\travel-dapp\\contracts\\Travel.sol",
  "compiler": {
    "name": "solc",
    "version": "0.4.24+commit.e67f0147.Emscripten.clang"
  },
  "schemaVersion": "2.0.1",
  "updatedAt": "2018-11-09T01:46:10.414Z"
}